:100000000C945E000C9486000C9486000C94860080
:100010000C9486000C9486000C9486000C94860048
:100020000C9486000C9486000C9486000C94860038
:100030000C9486000C9486000C9486000C94860028
:100040000C94A9010C9486000C9456040C9488041A
:100050000C9486000C9486000C9486000C94860008
:100060000C9486000C948600000000080002010039
:100070000003040700000000000000000102040863
:100080001020408001020408102001020408102002
:10009000040404040404040402020202020203032E
:1000A0000303030300000000250028002B000000CC
:1000B0000000240027002A00DC00B80411241FBE21
:1000C000CFEFD8E0DEBFCDBF11E0A0E0B1E0E8E9BE
:1000D000FCE002C005900D92AE34B107D9F722E0E2
:1000E000AEE4B1E001C01D92AF3BB207E1F710E012
:1000F000CCEBD0E004C02297FE010E944606C83B2C
:10010000D107C9F70E94FC040C944A060C94000025
:1001100026E040E855E260E070E082E292E00E9472
:10012000F40365E070E080E090E00E94160260E079
:1001300071E082E292E00E94540580E591E00E9425
:100140003D011092110284E690E090931802809392
:100150001702909316028093150210925901109283
:100160005801109257011092560110924F011092AF
:100170004E010895CF93DF93C7E1D2E06881798182
:1001800080E591E00E947301688179814AE050E046
:1001900082E292E00E9409066091150270911602B7
:1001A00080E591E00E948E0164E670E080E090E0DE
:1001B000DF91CF910C94160280E591E00C942F0111
:1001C000CF93DF93C1E0D0E082E292E00E9411037E
:1001D000892B09F182E292E00E942A0320915801C2
:1001E00030915901243B31055CF4F901E65AFE4F88
:1001F00080832F5F3F4F3093590120935801E4CF04
:1002000080935A01D0935901C0935801109257011D
:1002100010925601D9CF60E271E082E292E00E9432
:100220005405C0915601D0915701C65ADE4F8091B6
:100230005801909159019E012A55314028173907DC
:1002400034F4699182E292E00E944905F0CF62E2C3
:1002500071E082E292E0DF91CF910C945405FC01B1
:1002600084E0808387E0818388E082838CE08383DD
:100270008EE084838FE085830895CF93DF93EC0134
:1002800061E089810E94A20261E089E00E94A202ED
:1002900060E08C810E94A20261E08A810E94A20239
:1002A00061E08AE00E94A20260E08D810E94A202C9
:1002B00061E088810E94A20261E088810E94DB02E5
:1002C00060E08B810E94A20280EA8093800081E13D
:1002D0008093810080E991E090938700809386006D
:1002E000DF91CF91089577FF05C0719561957109F0
:1002F00021E001C020E0613931E0730714F060E9CA
:1003000071E07093890060938800222311F061E00E
:1003100001C060E0FC0181810C94DB0277FF05C025
:1003200071956195710921E001C020E0613931E0EA
:10033000730714F060E971E070938B0060938A009A
:10034000222311F061E001C060E0FC0182810C9485
:10035000DB021F920F920FB60F9211242F933F933F
:100360008F939F93AF93BF9380911A0290911B023A
:10037000A0911C02B0911D023091190223E0230FBD
:100380002D3720F40196A11DB11D05C026E8230FCD
:100390000296A11DB11D2093190280931A02909319
:1003A0001B02A0931C02B0931D0280911E0290912B
:1003B0001F02A0912002B09121020196A11DB11D42
:1003C00080931E0290931F02A0932002B0932102FB
:1003D000BF91AF919F918F913F912F910F900FBE41
:1003E0000F901F9018953FB7F89480911E0290913E
:1003F0001F02A0912002B091210226B5A89B05C042
:100400002F3F19F00196A11DB11D3FBF6627782F20
:10041000892F9A2F620F711D811D911D42E0660F79
:10042000771F881F991F4A95D1F70895CF92DF92C1
:10043000EF92FF92CF93DF936B017C010E94F30157
:10044000EB01C114D104E104F10489F00E942106FA
:100450000E94F3016C1B7D0B683E734090F381E0BA
:10046000C81AD108E108F108C851DC4FEACFDF9182
:10047000CF91FF90EF90DF90CF900895789484B55E
:10048000826084BD84B5816084BD85B5826085BD90
:1004900085B5816085BDEEE6F0E080818160808376
:1004A000E1E8F0E010828081826080838081816059
:1004B0008083E0E8F0E0808181608083E1EBF0E020
:1004C000808184608083E0EBF0E0808181608083C4
:1004D000EAE7F0E0808184608083808182608083AD
:1004E0008081816080838081806880831092C100D8
:1004F0000895833081F028F4813099F08230A1F0A2
:1005000008958730A9F08830B9F08430D1F4809113
:1005100080008F7D03C0809180008F778093800062
:10052000089584B58F7702C084B58F7D84BD08950A
:100530008091B0008F7703C08091B0008F7D809351
:10054000B0000895CF93DF9390E0FC01E458FF4F93
:100550002491FC01E057FF4F8491882349F190E0FA
:10056000880F991FFC01E255FF4FA591B4918C555E
:100570009F4FFC01C591D4919FB7611108C0F894B9
:100580008C91209582238C93888182230AC06230CB
:1005900051F4F8948C91322F309583238C93888179
:1005A000822B888304C0F8948C91822B8C939FBFFC
:1005B000DF91CF9108950F931F93CF93DF931F92F5
:1005C000CDB7DEB7282F30E0F901E859FF4F84910D
:1005D000F901E458FF4F1491F901E057FF4F0491DE
:1005E0000023C9F0882321F069830E947902698180
:1005F000E02FF0E0EE0FFF1FEC55FF4FA591B491F7
:100600009FB7F8948C91611103C01095812301C0AC
:10061000812B8C939FBF0F90DF91CF911F910F91F2
:100620000895FC01818D228D90E0805C9F4F821B9C
:1006300091098F7399270895FC01918D828D9817E8
:1006400031F0828DE80FF11D858D90E008958FEFD8
:100650009FEF0895FC01918D828D981761F0828D36
:10066000DF01A80FB11D5D968C91928D9F5F9F73E6
:10067000928F90E008958FEF9FEF08958EEA94E0B7
:10068000892B49F080EE90E0892B29F00E94AE047E
:1006900081110C94E0000895FC01848DDF01A80F06
:1006A000B11DA35ABF4F2C91848D90E001968F739A
:1006B0009927848FA689B7892C93A089B1898C91B9
:1006C00080648C93938D848D981306C00288F3897F
:1006D000E02D80818F7D80830895CF93DF93EC019F
:1006E000888D8823C9F0EA89FB89808185FD05C052
:1006F000A889B9898C9186FD0FC00FB607FCF5CF8C
:10070000808185FFF2CFA889B9898C9185FFEDCFD3
:10071000CE010E944C03E7CFDF91CF910895CF9295
:10072000DF92FF920F931F93CF93DF931F92CDB76A
:10073000DEB76C0181E0D60158968C9358975B9692
:100740009C915B975C968C915C97981307C0509630
:10075000ED91FC915197808185FD2EC0F601038DAE
:1007600010E00F5F1F4F0F731127F02EF601848DDD
:10077000F81211C00FB607FCF9CFD6015096ED91D3
:10078000FC915197808185FFF1CFC60169830E945A
:100790004C036981EBCF838DE80FF11DE35AFF4FC6
:1007A0006083D6015B960C935B975296ED91FC911A
:1007B0005397808180620CC0D6015696ED91FC91D2
:1007C000579760835096ED91FC915197808180649A
:1007D000808381E090E00F90DF91CF911F910F9186
:1007E000FF90DF90CF900895BF92CF92DF92EF926B
:1007F000FF92CF93DF93EC016A017B01B22EE8896F
:10080000F98982E08083411581EE58076105710501
:10081000A1F060E079E08DE390E0A70196010E94ED
:1008200022062150310941095109569547953795BE
:100830002795211580E1380798F0E889F989108219
:1008400060E874E88EE190E0A70196010E9422061C
:1008500021503109410951095695479537952795FA
:10086000EC85FD853083EE85FF852083188EEC892D
:10087000FD89B082EA89FB89808180618083EA8971
:10088000FB89808188608083EA89FB898081806818
:100890008083EA89FB8980818F7D8083DF91CF917E
:1008A000FF90EF90DF90CF90BF9008951F920F922E
:1008B0000FB60F9211242F938F939F93EF93FF9373
:1008C000E0913202F09133028081E0913802F091A0
:1008D000390282FD12C0908180913B028F5F8F733D
:1008E00020913C02821751F0E0913B02F0E0EE5D76
:1008F000FD4F958F80933B0201C08081FF91EF9166
:100900009F918F912F910F900FBE0F901F90189570
:100910001F920F920FB60F9211242F933F934F9374
:100920005F936F937F938F939F93AF93BF93EF9357
:10093000FF9382E292E00E944C03FF91EF91BF91FE
:10094000AF919F918F917F916F915F914F913F9167
:100950002F910F900FBE0F901F90189582E292E09A
:100960000E94110321E0892B09F420E0822F0895D1
:10097000109225021092240288EE93E0A0E0B0E0ED
:100980008093260290932702A0932802B093290215
:1009900081E391E0909323028093220285EC90E022
:1009A00090932F0280932E0284EC90E0909331027A
:1009B0008093300280EC90E0909333028093320277
:1009C00081EC90E0909335028093340282EC90E0C9
:1009D000909337028093360286EC90E09093390230
:1009E0008093380210923B0210923C0210923D021A
:1009F00010923E02089508950E943E020E94FB0458
:100A00000E948800CEE3D3E00E94BA002097E1F371
:100A10000E943E03F9CFCF92DF92EF92FF920F93A5
:100A20001F93CF93DF936C017A01EB01E60EF71E63
:100A300000E010E0CE15DF0561F06991D601ED917F
:100A4000FC910190F081E02DC6010995080F191F56
:100A5000F1CFC801DF91CF911F910F91FF90EF90DF
:100A6000DF90CF9008956115710581F0DB010D9045
:100A70000020E9F7AD0141505109461B570BDC013D
:100A8000ED91FC910280F381E02D099480E090E0EB
:100A90000895DC01ED91FC910190F081E02D099425
:100AA0006DE371E00C9433050F931F93CF93DF93A5
:100AB000EC010E9433058C01CE010E945005800F8D
:100AC000911FDF91CF911F910F9108958F929F9267
:100AD000AF92BF92CF92DF92EF92FF920F931F934C
:100AE000CF93DF93CDB7DEB7A1970FB6F894DEBFF3
:100AF0000FBECDBF7C01C42EE52FCB01D22E19A293
:100B000021E02D1510F02AE0D22E8E010F5D1F4F2F
:100B10008D2C912CA12CB12C6C2D7E2FA501940134
:100B20000E9422068C2DD29E801911240150110999
:100B30008A3014F4805D01C0895CF801808321153E
:100B400031054105510521F0C22EE32FCA01E4CF42
:100B5000B801C7010E943305A1960FB6F894DEBF15
:100B60000FBECDBFDF91CF911F910F91FF90EF90FE
:100B7000DF90CF90BF90AF909F908F900895CF92CD
:100B8000DF92EF92FF920F931F93CF93DF93EC01CD
:100B90006A017B012115310579F4E881F981019021
:100BA000F081E02D642FDF91CF911F910F91FF9085
:100BB000EF90DF90CF9009942A303105E9F477FF68
:100BC0001AC06DE20E9449058C0144275527BA01DD
:100BD0004C195D096E097F092AE0CE010E94660565
:100BE000800F911FDF91CF911F910F91FF90EF9098
:100BF000DF90CF9008952AE0B701A601CE01DF91E2
:100C0000CF911F910F91FF90EF90DF90CF900C94B8
:100C100066050F931F93CF93DF93EC019A01AB010D
:100C2000662757FD6095762F0E94BF058C01CE0187
:100C30000E945005800F911FDF91CF911F910F915E
:100C400008950895A1E21A2EAA1BBB1BFD010DC039
:100C5000AA1FBB1FEE1FFF1FA217B307E407F5076C
:100C600020F0A21BB30BE40BF50B661F771F881F48
:100C7000991F1A9469F760957095809590959B01DE
:100C8000AC01BD01CF010895EE0FFF1F0590F49157
:080C9000E02D0994F894FFCF58
:100C98004475616C204D433333393236204D6F74BF
:100CA8006F7220536869656C64006661756C7400C6
:100CB8002000456E6420427566666572000000007B
:100CC800008F030B0511032A031C036D030D0A0093
:0E0CD8006E616E00696E66006F7666002E001B
:00000001FF
