:100000000C9463000C948B000C948B000C948B006C
:100010000C948B000C948B000C948B000C948B0034
:100020000C948B000C948B000C948B000C948B0024
:100030000C948B000C948B000C948B000C948B0014
:100040000C9443030C948B000C9442060C9474069D
:100050000C948B000C948B000C948B000C948B00F4
:100060000C948B000C948B0000000008000201002F
:100070000003040700000000000000000102040863
:100080001020408001020408102001020408102002
:10009000040404040404040402020202020203032E
:1000A00003030303000000002300260029000000D2
:1000B0000000250028002B0000000000240027007D
:1000C0002A00B601A40611241FBECFEFD8E0DEBF80
:1000D000CDBF11E0A0E0B1E0E8E2F1E102C005909F
:1000E0000D92A234B107D9F722E0A2E4B1E001C039
:1000F0001D92A93DB207E1F710E0C6ECD0E004C0C4
:100100002297FE010E948E08C23CD107C9F70E94C7
:10011000E8060C9492080C940000809127028E3D12
:1001200079F4809128028D3A59F480912902813A1C
:1001300039F410922902109264011092630108951B
:100140008091630190916401019690936401809382
:1001500063010895DC01ED91FC910190F081E02DA7
:1001600009948091630190916401009791F46EED80
:1001700070E08CE392E00E94AA006DEA70E08CE3EC
:1001800092E00E94AA0061EA70E08CE392E00C9495
:10019000AA00039744F0109232021092310210929A
:1001A000300210922F02089526E040E855E260E008
:1001B00070E08CE392E00E94E00565E070E080E092
:1001C00090E00E94BC0361E071E08CE392E00E9449
:1001D000390785E691E00E947A0261E082E00E94A0
:1001E000650461E083E00E94650460E082E00E94B3
:1001F0009E0460E083E00E949E041092260210920A
:100200003202109231021092300210922F0210929C
:100210006E0110926D0110926C0110926B011092A0
:100220006401109263010895CF93DF9320916B01D5
:1002300030916C01C0916D01D0916E012C173D077A
:100240000CF041C0F901E159FE4FA081AE3D79F5B6
:10025000A181AD3AA1F5A281A13A49F485E0DB0183
:1002600001900D928A95E1F72B5F3F4F28C0C21B8A
:10027000D30B279758F0AC3F49F447E0DC010190DD
:100280000D924A95E1F7295F3F4F19C0AB3BB9F496
:1002900080819181A281B381FA0180839183A283BD
:1002A000B3832C5F3F4F0BC02C173D0741F02F5FEE
:1002B0003F4FF901E159FE4F80818E3DA9F7309300
:1002C0006C0120936B01DF91CF91089580912602FC
:1002D000813031F461E082E00E949E0461E005C05B
:1002E00060E082E00E949E0460E083E00C949E0443
:1002F00085E691E00E94FE02882339F06BE171E00F
:100300008CE392E00E943907FFCF089543E252E068
:1003100067E272E08CE292E00E94140188E591E0CD
:100320000E9416038DE491E00E94160382E491E09E
:100330000E9416030E9466016091310270913202A0
:1003400085E691E00E94B0020E94780160912F0240
:100350007091300285E691E00E94CB020E94780104
:100360006AE070E080E090E00C94BC0385E691E0E8
:100370000E946C022DE830E044EF51E060E070E054
:1003800088E591E00E94080321EB30E044EF51E062
:1003900060E070E08DE491E00E94080326E032E026
:1003A0004AEF50E060E070E082E491E00C940803D2
:1003B000CF93DF93C1E0D0E08CE392E00E94FD0494
:1003C000892B09F18CE392E00E94160520916D01C2
:1003D00030916E01243B31055CF4F901E159FE4F87
:1003E00080832F5F3F4F30936E0120936D01E4CFE8
:1003F00080936F01D0936E01C0936D0110926C01D8
:1004000010926B01D9CFDF91CF9108950F931F9375
:10041000CF93DF9385E691E00E94E6028C0185E6AA
:1004200091E00E94F202EC01B80180E090E00E94AD
:10043000B40720E030E443E054E40E944C0720E09D
:1004400030E040E450E40E94660818169CF0BE01BB
:1004500080E090E00E94B40720E030E443E054E400
:100460000E944C0720E030E040E450E40E9466081F
:10047000181644F410923202109231021092300297
:1004800010922F026EED70E08CE392E00E94AA00C1
:100490006DEA70E08CE392E00E94AA0061EC70E0EB
:1004A0008CE392E00E94AA00612F8CE392E00E940C
:1004B0007B05602F8CE392E00E947B056D2F8CE31F
:1004C00092E00E947B056C2F8CE392E0DF91CF914C
:1004D0001F910F910C947B05FC0184E0808387E0E1
:1004E000818388E082838CE083838EE084838FE045
:1004F00085830895CF93DF93EC0161E089810E94A9
:10050000650461E089E00E94650460E08C810E94DE
:10051000650461E08A810E94650461E08AE00E94CE
:10052000650460E08D810E94650461E088810E941D
:10053000650461E088810E949E0460E08B810E94D6
:10054000650480EA8093800081E18093810080E9E6
:1005500091E09093870080938600DF91CF9108957A
:1005600077FF05C071956195710921E001C020E018
:10057000613931E0730714F060E971E0709389002C
:1005800060938800222311F061E001C060E0FC016B
:1005900081810C949E0477FF05C071956195710966
:1005A00021E001C020E0613931E0730714F060E917
:1005B00071E070938B0060938A00222311F061E058
:1005C00001C060E0FC0182810C949E04FC018481E6
:1005D0000E941F0429E0AC01249FC001259F900DBB
:1005E00011240895FC0185810E941F0429E0AC01BB
:1005F000249FC001259F900D11240895FC01838143
:100600000E94D40421E0892B09F020E0822F089574
:10061000FC0181E08083118212821382148245835F
:100620005683678370873287218708950F931F93BE
:10063000CF93DF93EC018881882301F10E948D0321
:1006400009811A812B813C81601B710B820B930BFA
:100650000D811E812F8138856017710782079307EE
:1006600068F00E948D0369837A838B839C83E9857C
:10067000FA85DF91CF911F910F910994DF91CF916E
:100680001F910F9108951F920F920FB60F92112490
:100690002F933F938F939F93AF93BF938091340297
:1006A00090913502A0913602B09137023091330219
:1006B00023E0230F2D3720F40196A11DB11D05C0A5
:1006C00026E8230F0296A11DB11D209333028093CB
:1006D000340290933502A0933602B0933702809192
:1006E000380290913902A0913A02B0913B020196F2
:1006F000A11DB11D8093380290933902A0933A0254
:10070000B0933B02BF91AF919F918F913F912F91F9
:100710000F900FBE0F901F9018952FB7F89460910F
:1007200034027091350280913602909137022FBFCA
:1007300008953FB7F8948091380290913902A091C2
:100740003A02B0913B0226B5A89B05C02F3F19F095
:100750000196A11DB11D3FBF6627782F892F9A2FC3
:10076000620F711D811D911D42E0660F771F881F6A
:10077000991F4A95D1F70895CF92DF92EF92FF9299
:10078000CF93DF936B017C010E949903EB01C114AD
:10079000D104E104F10489F00E944B070E949903FF
:1007A0006C1B7D0B683E734090F381E0C81AD10842
:1007B000E108F108C851DC4FEACFDF91CF91FF90FB
:1007C000EF90DF90CF900895789484B5826084BDD7
:1007D00084B5816084BD85B5826085BD85B5816045
:1007E00085BDEEE6F0E0808181608083E1E8F0E0A5
:1007F0001082808182608083808181608083E0E8D4
:10080000F0E0808181608083E1EBF0E080818460B2
:100810008083E0EBF0E0808181608083EAE7F0E0B4
:100820008081846080838081826080838081816018
:1008300080838081806880831092C10008958E300B
:1008400008F08E5087702091000190E4299F90015C
:100850001124822B80937C0080917A0080648093A5
:100860007A0080917A0086FDFCCF809178002091FB
:10087000790090E0922B0895833081F028F4813044
:1008800099F08230A1F008958730A9F08830B9F04E
:100890008430D1F4809180008F7D03C080918000EE
:1008A0008F7780938000089584B58F7702C084B5D8
:1008B0008F7D84BD08958091B0008F7703C08091B3
:1008C000B0008F7D8093B0000895CF93DF9390E0C8
:1008D000FC01E458FF4F2491FC01E057FF4F849145
:1008E000882349F190E0880F991FFC01E854FF4FDD
:1008F000A591B49182559F4FFC01C591D4919FB7AA
:10090000611108C0F8948C91209582238C93888182
:1009100082230AC0623051F4F8948C91322F3095C2
:1009200083238C938881822B888304C0F8948C91D4
:10093000822B8C939FBFDF91CF9108950F931F93CC
:10094000CF93DF931F92CDB7DEB7282F30E0F901A8
:10095000E859FF4F8491F901E458FF4F1491F901D0
:10096000E057FF4F04910023C9F0882321F06983E9
:100970000E943C046981E02FF0E0EE0FFF1FE2557A
:10098000FF4FA591B4919FB7F8948C91611103C06A
:100990001095812301C0812B8C939FBF0F90DF9115
:1009A000CF911F910F910895CF93DF93282F30E0BF
:1009B000F901E859FF4F8491F901E458FF4FD491B0
:1009C000F901E057FF4FC491CC2391F081110E94AF
:1009D0003C04EC2FF0E0EE0FFF1FEC55FF4FA5910C
:1009E000B4912C912D2381E090E021F480E002C0AD
:1009F00080E090E0DF91CF910895FC01818D228D00
:100A000090E0805C9F4F821B91098F739927089516
:100A1000FC01918D828D981731F0828DE80FF11DC8
:100A2000858D90E008958FEF9FEF0895FC01918DE3
:100A3000828D981761F0828DDF01A80FB11D5D9640
:100A40008C91928D9F5F9F73928F90E008958FEFAE
:100A50009FEF08958AE996E0892B49F088ED91E0AF
:100A6000892B29F00E949A0681110C94D8010895CF
:100A7000FC01848DDF01A80FB11DA35ABF4F2C913B
:100A8000848D90E001968F739927848FA689B7890A
:100A90002C93A089B1898C9180648C93938D848DE3
:100AA000981306C00288F389E02D80818F7D8083B2
:100AB0000895CF93DF93EC01888D8823C9F0EA89EC
:100AC000FB89808185FD05C0A889B9898C9186FD47
:100AD0000FC00FB607FCF5CF808185FFF2CFA88944
:100AE000B9898C9185FFEDCFCE010E943805E7CF03
:100AF000DF91CF910895CF92DF92FF920F931F93D2
:100B0000CF93DF931F92CDB7DEB76C0181E0D601A2
:100B100058968C9358975B969C915B975C968C91BA
:100B20005C97981307C05096ED91FC915197808186
:100B300085FD2EC0F601038D10E00F5F1F4F0F7370
:100B40001127F02EF601848DF81211C00FB607FCA4
:100B5000F9CFD6015096ED91FC915197808185FF98
:100B6000F1CFC60169830E9438056981EBCF838D7F
:100B7000E80FF11DE35AFF4F6083D6015B960C939B
:100B80005B975296ED91FC915397808180620CC0E7
:100B9000D6015696ED91FC91579760835096ED9152
:100BA000FC91519780818064808381E090E00F9078
:100BB000DF91CF911F910F91FF90DF90CF9008951B
:100BC000BF92CF92DF92EF92FF92CF93DF93EC012F
:100BD0006A017B01B22EE889F98982E080834115A0
:100BE00081EE580761057105A1F060E079E08DE3C1
:100BF00090E0A70196010E946A082150310941093D
:100C000051095695479537952795211580E1380765
:100C100098F0E889F989108260E874E88EE190E044
:100C2000A70196010E946A08215031094109510922
:100C30005695479537952795EC85FD853083EE854C
:100C4000FF852083188EEC89FD89B082EA89FB89B3
:100C5000808180618083EA89FB89808188608083CC
:100C6000EA89FB89808180688083EA89FB898081A9
:100C70008F7D8083DF91CF91FF90EF90DF90CF90B9
:100C8000BF9008951F920F920FB60F9211242F93C9
:100C90008F939F93EF93FF93E0914C02F0914D025D
:100CA0008081E0915202F091530282FD12C0908146
:100CB000809155028F5F8F7320915602821751F0F9
:100CC000E0915502F0E0E45CFD4F958F8093550272
:100CD00001C08081FF91EF919F918F912F910F9093
:100CE0000FBE0F901F9018951F920F920FB60F9284
:100CF00011242F933F934F935F936F937F938F9321
:100D00009F93AF93BF93EF93FF938CE392E00E9486
:100D10003805FF91EF91BF91AF919F918F917F9196
:100D20006F915F914F913F912F910F900FBE0F9058
:100D30001F9018958CE392E00E94FD0421E0892B1E
:100D400009F420E0822F089510923F0210923E0293
:100D500088EE93E0A0E0B0E08093400290934102DF
:100D6000A0934202B093430285E291E090933D024A
:100D700080933C0285EC90E0909349028093480276
:100D800084EC90E090934B0280934A0280EC90E0D8
:100D900090934D0280934C0281EC90E090934F022F
:100DA00080934E0282EC90E0909351028093500227
:100DB00086EC90E090935302809352021092550279
:100DC00010925602109257021092580208950895F8
:100DD0000E94E4030E94E7060E94D400CAE2D5E024
:100DE0000E9486012097E1F30E942A05F9CFCF9255
:100DF000DF92EF92FF920F931F93CF93DF936C01DB
:100E00007A01EB01E60EF71E00E010E0CE15DF05DB
:100E100061F06991D601ED91FC910190F081E02D96
:100E2000C6010995080F191FF1CFC801DF91CF91B5
:100E30001F910F91FF90EF90DF90CF900895611573
:100E4000710581F0DB010D900020E9F7AD01415003
:100E50005109461B570BDC01ED91FC910280F38197
:100E6000E02D099480E090E0089561E371E00C9436
:100E70001F070F931F93CF93DF93EC010E941F076F
:100E80008C01CE010E943507800F911FDF91CF9119
:100E90001F910F91089508950CD0DEC0D6D040F078
:100EA000CDD030F021F45F3F19F0BFC0511108C11F
:100EB000C2C0E3D098F39923C9F35523B1F3951B2E
:100EC000550BBB27AA2762177307840738F09F5F6B
:100ED0005F4F220F331F441FAA1FA9F333D00E2EDA
:100EE0003AF0E0E830D091505040E695001CCAF747
:100EF00029D0FE2F27D0660F771F881FBB1F26170C
:100F000037074807AB07B0E809F0BB0B802DBF01DE
:100F1000FF2793585F4F2AF09E3F510568F085C028
:100F2000CFC05F3FECF3983EDCF3869577956795ED
:100F3000B795F7959F5FC9F7880F911D969587958F
:100F400097F90895E1E0660F771F881FBB1F6217AE
:100F500073078407BA0720F0621B730B840BBA0B6C
:100F6000EE1F88F7E0950895E89409C097FB3EF4DA
:100F700090958095709561957F4F8F4F9F4F9923E6
:100F8000A9F0F92F96E9BB279395F6958795779564
:100F90006795B795F111F8CFFAF4BB0F11F460FF24
:100FA0001BC06F5F7F4F8F4F9F4F16C0882311F07C
:100FB00096E911C0772321F09EE8872F762F05C090
:100FC000662371F096E8862F70E060E02AF09A952B
:100FD000660F771F881FDAF7880F9695879597F920
:100FE0000895990F0008550FAA0BE0E8FEEF1616BA
:100FF0001706E807F907C0F012161306E407F5070D
:1010000098F0621B730B840B950B39F40A2661F080
:10101000232B242B252B21F408950A2609F4A14023
:10102000A6958FEF811D811D089597F99F6780E830
:1010300070E060E008959FEF80EC089500240A942A
:101040001616170618060906089500240A941216A3
:101050001306140605060895092E0394000C11F4D6
:10106000882352F0BB0F40F4BF2B11F460FF04C083
:101070006F5F7F4F8F4F9F4F089557FD9058440FDC
:10108000551F59F05F3F71F04795880F97FB991FE7
:1010900061F09F3F79F087950895121613061406A4
:1010A000551FF2CF4695F1DF08C016161706180631
:1010B000991FF1CF86957105610508940895E8940C
:1010C000BB2766277727CB0197F908958ADF08F4B5
:1010D0008FEF0895A1E21A2EAA1BBB1BFD010DC0C4
:1010E000AA1FBB1FEE1FFF1FA217B307E407F507D8
:1010F00020F0A21BB30BE40BF50B661F771F881FB4
:10110000991F1A9469F760957095809590959B0149
:10111000AC01BD01CF010895EE0FFF1F0590F491C2
:08112000E02D0994F894FFCFC3
:10112800014475616C204D433333393236204D6F9D
:10113800746F7220536869656C64006661756C74BD
:1011480000000000007B05F706FD04160508055998
:10115800050D0A006E616E00696E66006F766600A6
:021168002E0057
:00000001FF
